{
  "contractName": "money",
  "abi": [
    {
      "constant": true,
      "inputs": [
        {
          "name": "",
          "type": "address"
        }
      ],
      "name": "counts",
      "outputs": [
        {
          "name": "",
          "type": "uint256"
        }
      ],
      "payable": false,
      "stateMutability": "view",
      "type": "function"
    },
    {
      "constant": true,
      "inputs": [
        {
          "name": "",
          "type": "address"
        }
      ],
      "name": "yourGesture",
      "outputs": [
        {
          "name": "",
          "type": "uint8"
        }
      ],
      "payable": false,
      "stateMutability": "view",
      "type": "function"
    },
    {
      "constant": true,
      "inputs": [],
      "name": "state",
      "outputs": [
        {
          "name": "",
          "type": "uint8"
        }
      ],
      "payable": false,
      "stateMutability": "view",
      "type": "function"
    },
    {
      "constant": true,
      "inputs": [],
      "name": "zotau",
      "outputs": [
        {
          "name": "",
          "type": "address"
        }
      ],
      "payable": false,
      "stateMutability": "view",
      "type": "function"
    },
    {
      "constant": true,
      "inputs": [],
      "name": "winner",
      "outputs": [
        {
          "name": "",
          "type": "address"
        }
      ],
      "payable": false,
      "stateMutability": "view",
      "type": "function"
    },
    {
      "constant": true,
      "inputs": [],
      "name": "whoWin",
      "outputs": [
        {
          "name": "",
          "type": "string"
        }
      ],
      "payable": false,
      "stateMutability": "view",
      "type": "function"
    },
    {
      "inputs": [
        {
          "name": "_price",
          "type": "uint256"
        }
      ],
      "payable": true,
      "stateMutability": "payable",
      "type": "constructor"
    },
    {
      "payable": true,
      "stateMutability": "payable",
      "type": "fallback"
    },
    {
      "constant": false,
      "inputs": [
        {
          "name": "_guessMoney",
          "type": "uint256"
        }
      ],
      "name": "scissors",
      "outputs": [],
      "payable": true,
      "stateMutability": "payable",
      "type": "function"
    },
    {
      "constant": false,
      "inputs": [
        {
          "name": "_guessMoney",
          "type": "uint256"
        }
      ],
      "name": "rock",
      "outputs": [],
      "payable": true,
      "stateMutability": "payable",
      "type": "function"
    },
    {
      "constant": false,
      "inputs": [
        {
          "name": "_guessMoney",
          "type": "uint256"
        }
      ],
      "name": "paper",
      "outputs": [],
      "payable": true,
      "stateMutability": "payable",
      "type": "function"
    },
    {
      "constant": false,
      "inputs": [],
      "name": "sendmoney",
      "outputs": [],
      "payable": true,
      "stateMutability": "payable",
      "type": "function"
    },
    {
      "constant": true,
      "inputs": [],
      "name": "getContractBalance",
      "outputs": [
        {
          "name": "",
          "type": "uint256"
        }
      ],
      "payable": false,
      "stateMutability": "view",
      "type": "function"
    }
  ],
  "bytecode": "0x6080604052604051602080610dda8339810180604052602081101561002357600080fd5b505160008054600160a060020a03191633178155670de0b6b3a764000082026002556004805460a060020a60ff021916740100000000000000000000000000000000000000008302179055506003600242604051602001808281526020019150506040516020818303038152906040526040518082805190602001908083835b602083106100c25780518252601f1990920191602091820191016100a3565b51815160209384036101000a60001901801990921691161790526040519190930194509192505080830381855afa158015610101573d6000803e3d6000fd5b5050506040513d602081101561011657600080fd5b505181151561012157fe5b60019190060160035560405130903480156108fc02916000818181858888f19350505050158015610156573d6000803e3d6000fd5b5050610c73806101676000396000f3fe6080604052600436106100ae5763ffffffff7c01000000000000000000000000000000000000000000000000000000006000350416630568e65e81146100b0578063457d8516146100f5578063635fecff146101125780636f9fb98a1461012f578063740b08ae14610144578063a00a0b841461014c578063b369282714610169578063c19d93fb146101c0578063d1d47b63146101e5578063dfbf53ae14610216578063e28a48fc1461022b575b005b3480156100bc57600080fd5b506100e3600480360360208110156100d357600080fd5b5035600160a060020a03166102b5565b60408051918252519081900360200190f35b6100ae6004803603602081101561010b57600080fd5b50356102c7565b6100ae6004803603602081101561012857600080fd5b50356104e6565b34801561013b57600080fd5b506100e3610726565b6100ae61072c565b6100ae6004803603602081101561016257600080fd5b50356108ba565b34801561017557600080fd5b5061019c6004803603602081101561018c57600080fd5b5035600160a060020a0316610adf565b604051808260028111156101ac57fe5b60ff16815260200191505060405180910390f35b3480156101cc57600080fd5b506101d5610af4565b604051808260018111156101ac57fe5b3480156101f157600080fd5b506101fa610b04565b60408051600160a060020a039092168252519081900360200190f35b34801561022257600080fd5b506101fa610b13565b34801561023757600080fd5b50610240610b22565b6040805160208082528351818301528351919283929083019185019080838360005b8381101561027a578181015183820152602001610262565b50505050905090810190601f1680156102a75780820380516001836020036101000a031916815260200191505b509250505060405180910390f35b60056020526000908152604090205481565b60405130903480156108fc02916000818181858888f193505050501580156102f3573d6000803e3d6000fd5b506000805475ff0000000000000000000000000000000000000000001916750100000000000000000000000000000000000000000017815560045460a060020a900460ff16600181111561034357fe5b1461034d57600080fd5b600054600160a060020a031633141561036557600080fd5b600354600114156103e55760408051808201909152600c8082527fe88e8ae5aeb6e68bbfe98ca2000000000000000000000000000000000000000060209092019182526103b491600191610baf565b506000546004805473ffffffffffffffffffffffffffffffffffffffff1916600160a060020a039092169190911790555b600354600214156104925760408051808201909152600c8082527fe88e8ae5aeb6e8bcb8e98ca20000000000000000000000000000000000000000602090920191825261043491600191610baf565b506004805473ffffffffffffffffffffffffffffffffffffffff1916331790819055604051600160a060020a0391909116906002340280156108fc02916000818181858888f19350505050158015610490573d6000803e3d6000fd5b505b600354600314156104e35760408051808201909152600c8082527fe5868de78ea9e4b880e6aca1000000000000000000000000000000000000000060209092019182526104e191600191610baf565b505b50565b60405130903480156108fc02916000818181858888f19350505050158015610512573d6000803e3d6000fd5b506000805474ff00000000000000000000000000000000000000001976ff0000000000000000000000000000000000000000000019909116760100000000000000000000000000000000000000000000171660a060020a17815560045460a060020a900460ff16600181111561058457fe5b1461058e57600080fd5b600054600160a060020a03163314156105a657600080fd5b600354600114156106535760408051808201909152600c8082527fe88e8ae5aeb6e8bcb8e98ca2000000000000000000000000000000000000000060209092019182526105f591600191610baf565b506004805473ffffffffffffffffffffffffffffffffffffffff1916331790819055604051600160a060020a0391909116906002340280156108fc02916000818181858888f19350505050158015610651573d6000803e3d6000fd5b505b600354600214156106a45760408051808201909152600c8082527fe5868de78ea9e4b880e6aca1000000000000000000000000000000000000000060209092019182526106a291600191610baf565b505b600354600314156104e35760408051808201909152600c8082527fe88e8ae5aeb6e68bbfe98ca2000000000000000000000000000000000000000060209092019182526106f391600191610baf565b506000546004805473ffffffffffffffffffffffffffffffffffffffff1916600160a060020a0390921691909117905550565b30315b90565b60018060045460a060020a900460ff16600181111561074757fe5b1461075157600080fd5b600054600160a060020a031633146107ca57604080517f08c379a000000000000000000000000000000000000000000000000000000000815260206004820152601160248201527f596f7520617265206e6f74206f776e6572000000000000000000000000000000604482015290519081900360640190fd5b600054600454600160a060020a039081169116141561082b57600054600160a060020a03166108fc600a6009303102049081150290604051600060405180830381858888f19350505050158015610825573d6000803e3d6000fd5b506104e3565b600454600160a060020a03163314156104e357600454604051600160a060020a0390911690600a30316009020480156108fc02916000818181858888f1935050505015801561087e573d6000803e3d6000fd5b5060008054604051600160a060020a0390911691303180156108fc02929091818181858888f193505050501580156104e1573d6000803e3d6000fd5b60405130903480156108fc02916000818181858888f193505050501580156108e6573d6000803e3d6000fd5b506000805476ffff0000000000000000000000000000000000000000001974ff00000000000000000000000000000000000000001990911660a060020a1716815560045460a060020a900460ff16600181111561093f57fe5b1461094957600080fd5b6003546001141561099a5760408051808201909152600c8082527fe5868de78ea9e4b880e6aca10000000000000000000000000000000000000000602090920191825261099891600191610baf565b505b60035460021415610a1a5760408051808201909152600c8082527fe88e8ae5aeb6e68bbfe98ca2000000000000000000000000000000000000000060209092019182526109e991600191610baf565b506000546004805473ffffffffffffffffffffffffffffffffffffffff1916600160a060020a039092169190911790555b60035460031415610ac75760408051808201909152600c8082527fe88e8ae5aeb6e8bcb8e98ca200000000000000000000000000000000000000006020909201918252610a6991600191610baf565b506004805473ffffffffffffffffffffffffffffffffffffffff1916331790819055604051600160a060020a0391909116906002340280156108fc02916000818181858888f19350505050158015610ac5573d6000803e3d6000fd5b505b600054600160a060020a03163314156104e357600080fd5b60066020526000908152604090205460ff1681565b60045460a060020a900460ff1681565b600054600160a060020a031681565b600454600160a060020a031681565b60018054604080516020600284861615610100026000190190941693909304601f81018490048402820184019092528181529291830182828015610ba75780601f10610b7c57610100808354040283529160200191610ba7565b820191906000526020600020905b815481529060010190602001808311610b8a57829003601f168201915b505050505081565b828054600181600116156101000203166002900490600052602060002090601f016020900481019282601f10610bf057805160ff1916838001178555610c1d565b82800160010185558215610c1d579182015b82811115610c1d578251825591602001919060010190610c02565b50610c29929150610c2d565b5090565b61072991905b80821115610c295760008155600101610c3356fea165627a7a72305820155ea309e8b4137d1833cac5fa8412c780ce773399f0413062a1883012cc92c50029",
  "source": "pragma solidity 0.5.0;\r\n\r\ncontract money {\r\n    address payable public zotau;\r\n    bool  SCISSORS;\r\n    bool  PAPER;\r\n    bool  ROCK;\r\n    string public whoWin;\t\r\n    \r\n    uint  price;\r\n    uint  zotauanswer;\r\n    address payable public winner;\r\n    \r\n    enum State {Start , end}\r\n    enum Gesture {scissors , rock, paper}\r\n    State public state ;\r\n    \r\n    mapping(address => uint) public counts ;\r\n    mapping(address => Gesture) public yourGesture;\r\n    \r\n\r\nconstructor(uint _price)public payable{\r\n    zotau = msg.sender;\r\n    price = _price * 1 ether;\r\n    state = State.Start;\r\n    //  this.transfer(address(msg.send);\r\n     \r\n    zotauanswer = (uint256(sha256(abi.encodePacked(now))) % 3)+1; \r\n    // this.transfer(msg.value);；\r\n       address(this).transfer(msg.value);\r\n}\r\n\r\nmodifier checkState(State _state){\r\n        require(state == _state);\r\n        _;\r\n    }\r\n\r\nmodifier musthavegesture(){\r\n        // require(yourGesture[msg.sender] != null);\r\n        _;\r\n    }\r\n    \r\nmodifier onlyOwner{\r\n        require(zotau == msg.sender, \"You are not owner\");\r\n        _;\r\n    }\r\n    \r\n    \r\n function scissors(uint _guessMoney) public payable {\r\n    \r\n     address(this).transfer(msg.value);\r\n     \r\n     SCISSORS = true;\r\n     ROCK = false;\r\n     PAPER = false;\r\n      require(state == State.Start);\r\n      if (zotauanswer == 1 ) {\r\n          whoWin=\"再玩一次\";\r\n          \r\n          \r\n      }\r\n      if (zotauanswer == 2 ) {\r\n          whoWin=\"莊家拿錢\";\r\n          winner = zotau;\r\n          \r\n      }\r\n      \r\n      if (zotauanswer == 3 ) {\r\n          whoWin=\"莊家輸錢\";\r\n          winner = msg.sender;\r\n        //   winner = zotau;\r\n           address(winner).transfer(msg.value* 2 );\r\n          \r\n      }\r\n    require(zotau != msg.sender);\r\n    \r\n    // winner.transfer(address(owner).balance * 9 / 10);\r\n } \r\n \r\n function rock(uint _guessMoney) public payable{\r\n    // _guessMoney=msg.value;\r\n     address(this).transfer(msg.value);\r\n     \r\n     ROCK = true;\r\n     SCISSORS = true;\r\n      require(state == State.Start);\r\n    require(zotau != msg.sender);\r\n       if (zotauanswer == 1 ) {\r\n         whoWin=\"莊家輸錢\";\r\n         winner = msg.sender;\r\n        //   winner = zotau;\r\n            // if (this.getContractBalance > msg.vlaue*2) {  \r\n                // address(msg.sender).transfer(msg.value);\r\n                address(winner).transfer(msg.value*2);\r\n                   \r\n            // }\r\n            \r\n      }\r\n      if (zotauanswer == 2 ) {\r\n           whoWin=\"再玩一次\";\r\n          \r\n      }\r\n      \r\n      if (zotauanswer == 3 ) {\r\n           whoWin=\"莊家拿錢\";\r\n        //   winner = msg.sender;\r\n          winner = zotau;\r\n      }\r\n\r\n     \r\n     \r\n }\r\n \r\n function paper(uint _guessMoney) public payable {\r\n      \r\n     address(this).transfer(msg.value);\r\n     \r\n      \r\n     PAPER = true;\r\n      require(state == State.Start);\r\n    require(zotau != msg.sender);\r\n    \r\n     if (zotauanswer == 1 ) {\r\n         whoWin=\"莊家拿錢\";\r\n        //   winner = msg.sender;\r\n          winner = zotau;\r\n      }\r\n      if (zotauanswer == 2 ) {\r\n           whoWin=\"莊家輸錢\";\r\n          winner = msg.sender;\r\n             address(winner).transfer(msg.value*2);\r\n        //   winner = zotau;\r\n      }\r\n      \r\n      if (zotauanswer == 3 ) {\r\n           whoWin=\"再玩一次\";\r\n          \r\n      }\r\n      \r\n\r\n }\r\n\r\nfunction ()external payable{}\r\n\r\nfunction sendmoney()public payable checkState(State.end) onlyOwner{\r\n        if (winner == zotau) {\r\n        //問老師\r\n        zotau.transfer(address(this).balance * 9 / 10);\r\n        // zotau.transfer(address(this).balance);\r\n        }\r\n        else{\r\n            if(winner == msg.sender){\r\n                winner.transfer(address(this).balance * 9/10);\r\n                zotau.transfer(address(this).balance);\r\n            }\r\n        }\r\n}    \r\nfunction getContractBalance() public view returns(uint){\r\n        return address(this).balance;\r\n}\r\n\r\n}\r\n\r\n\r\n\r\n\r\n\r\n",
  "sourcePath": "c:/Users/user/Desktop/Sharing Economy Carbon Rights Bikecoin/contracts/rockPaperScissor.sol",
  "compiler": {
    "name": "solc",
    "version": "0.5.0+commit.1d4f565a.Emscripten.clang"
  },
  "schemaVersion": "3.3.1",
  "updatedAt": "2020-11-20T03:58:49.013Z",
  "devdoc": {
    "methods": {}
  },
  "userdoc": {
    "methods": {}
  }
}